{
	"FundMe.sol": {
		"FundMe": {
			"abi": [
				{
					"inputs": [],
					"name": "fund",
					"outputs": [],
					"stateMutability": "payable",
					"type": "function"
				},
				{
					"inputs": [
						{
							"internalType": "uint256",
							"name": "ethAmmount",
							"type": "uint256"
						}
					],
					"name": "getConversionRate",
					"outputs": [
						{
							"internalType": "uint256",
							"name": "",
							"type": "uint256"
						}
					],
					"stateMutability": "view",
					"type": "function"
				},
				{
					"inputs": [],
					"name": "getPrice",
					"outputs": [
						{
							"internalType": "uint256",
							"name": "",
							"type": "uint256"
						}
					],
					"stateMutability": "view",
					"type": "function"
				},
				{
					"inputs": [],
					"name": "getVersion",
					"outputs": [
						{
							"internalType": "uint256",
							"name": "",
							"type": "uint256"
						}
					],
					"stateMutability": "view",
					"type": "function"
				},
				{
					"inputs": [],
					"name": "minimumUsd",
					"outputs": [
						{
							"internalType": "uint256",
							"name": "",
							"type": "uint256"
						}
					],
					"stateMutability": "view",
					"type": "function"
				}
			],
			"devdoc": {
				"kind": "dev",
				"methods": {},
				"version": 1
			},
			"evm": {
				"assembly": "    /* \"FundMe.sol\":254:1631  contract FundMe {... */\n  mstore(0x40, 0x80)\n    /* \"FundMe.sol\":305:313  5 * 1e18 */\n  0x4563918244f40000\n    /* \"FundMe.sol\":277:313  uint256 public minimumUsd = 5 * 1e18 */\n  0x00\n  sstore\n    /* \"FundMe.sol\":254:1631  contract FundMe {... */\n  callvalue\n  dup1\n  iszero\n  tag_1\n  jumpi\n  0x00\n  dup1\n  revert\ntag_1:\n  pop\n  dataSize(sub_0)\n  dup1\n  dataOffset(sub_0)\n  0x00\n  codecopy\n  0x00\n  return\nstop\n\nsub_0: assembly {\n        /* \"FundMe.sol\":254:1631  contract FundMe {... */\n      mstore(0x40, 0x80)\n      jumpi(tag_1, lt(calldatasize, 0x04))\n      shr(0xe0, calldataload(0x00))\n      dup1\n      0x098de820\n      eq\n      tag_2\n      jumpi\n      dup1\n      0x0d8e6e2c\n      eq\n      tag_3\n      jumpi\n      dup1\n      0x6e5b6b28\n      eq\n      tag_4\n      jumpi\n      dup1\n      0x98d5fdca\n      eq\n      tag_5\n      jumpi\n      dup1\n      0xb60d4288\n      eq\n      tag_6\n      jumpi\n    tag_1:\n      0x00\n      dup1\n      revert\n        /* \"FundMe.sol\":277:313  uint256 public minimumUsd = 5 * 1e18 */\n    tag_2:\n      callvalue\n      dup1\n      iszero\n      tag_7\n      jumpi\n      0x00\n      dup1\n      revert\n    tag_7:\n      pop\n      tag_8\n      tag_9\n      jump\t// in\n    tag_8:\n      mload(0x40)\n      tag_10\n      swap2\n      swap1\n      tag_11\n      jump\t// in\n    tag_10:\n      mload(0x40)\n      dup1\n      swap2\n      sub\n      swap1\n      return\n        /* \"FundMe.sol\":1371:1628  function getVersion() public view returns (uint256) {... */\n    tag_3:\n      callvalue\n      dup1\n      iszero\n      tag_12\n      jumpi\n      0x00\n      dup1\n      revert\n    tag_12:\n      pop\n      tag_13\n      tag_14\n      jump\t// in\n    tag_13:\n      mload(0x40)\n      tag_15\n      swap2\n      swap1\n      tag_11\n      jump\t// in\n    tag_15:\n      mload(0x40)\n      dup1\n      swap2\n      sub\n      swap1\n      return\n        /* \"FundMe.sol\":1159:1365  function getConversionRate(uint256 ethAmmount) public view returns (uint256) {... */\n    tag_4:\n      callvalue\n      dup1\n      iszero\n      tag_16\n      jumpi\n      0x00\n      dup1\n      revert\n    tag_16:\n      pop\n      tag_17\n      0x04\n      dup1\n      calldatasize\n      sub\n      dup2\n      add\n      swap1\n      tag_18\n      swap2\n      swap1\n      tag_19\n      jump\t// in\n    tag_18:\n      tag_20\n      jump\t// in\n    tag_17:\n      mload(0x40)\n      tag_21\n      swap2\n      swap1\n      tag_11\n      jump\t// in\n    tag_21:\n      mload(0x40)\n      dup1\n      swap2\n      sub\n      swap1\n      return\n        /* \"FundMe.sol\":704:1153  function getPrice() public view returns (uint256) {... */\n    tag_5:\n      callvalue\n      dup1\n      iszero\n      tag_22\n      jumpi\n      0x00\n      dup1\n      revert\n    tag_22:\n      pop\n      tag_23\n      tag_24\n      jump\t// in\n    tag_23:\n      mload(0x40)\n      tag_25\n      swap2\n      swap1\n      tag_11\n      jump\t// in\n    tag_25:\n      mload(0x40)\n      dup1\n      swap2\n      sub\n      swap1\n      return\n        /* \"FundMe.sol\":320:659  function fund() public payable {... */\n    tag_6:\n      tag_26\n      tag_27\n      jump\t// in\n    tag_26:\n      stop\n        /* \"FundMe.sol\":277:313  uint256 public minimumUsd = 5 * 1e18 */\n    tag_9:\n      sload(0x00)\n      dup2\n      jump\t// out\n        /* \"FundMe.sol\":1371:1628  function getVersion() public view returns (uint256) {... */\n    tag_14:\n        /* \"FundMe.sol\":1414:1421  uint256 */\n      0x00\n        /* \"FundMe.sol\":1433:1457  address priceFeedAddress */\n      dup1\n        /* \"FundMe.sol\":1460:1502  0x694AA1769357215DE4FAC081bf1f309aDC325306 */\n      0x694aa1769357215de4fac081bf1f309adc325306\n        /* \"FundMe.sol\":1433:1502  address priceFeedAddress = 0x694AA1769357215DE4FAC081bf1f309aDC325306 */\n      swap1\n      pop\n        /* \"FundMe.sol\":1512:1543  AggregatorV3Interface priceFeed */\n      0x00\n        /* \"FundMe.sol\":1568:1584  priceFeedAddress */\n      dup2\n        /* \"FundMe.sol\":1512:1585  AggregatorV3Interface priceFeed = AggregatorV3Interface(priceFeedAddress) */\n      swap1\n      pop\n        /* \"FundMe.sol\":1602:1611  priceFeed */\n      dup1\n        /* \"FundMe.sol\":1602:1619  priceFeed.version */\n      0xffffffffffffffffffffffffffffffffffffffff\n      and\n      0x54fd4d50\n        /* \"FundMe.sol\":1602:1621  priceFeed.version() */\n      mload(0x40)\n      dup2\n      0xffffffff\n      and\n      0xe0\n      shl\n      dup2\n      mstore\n      0x04\n      add\n      0x20\n      mload(0x40)\n      dup1\n      dup4\n      sub\n      dup2\n      dup7\n      gas\n      staticcall\n      iszero\n      dup1\n      iszero\n      tag_30\n      jumpi\n      returndatasize\n      0x00\n      dup1\n      returndatacopy\n      revert(0x00, returndatasize)\n    tag_30:\n      pop\n      pop\n      pop\n      pop\n      mload(0x40)\n      returndatasize\n      not(0x1f)\n      0x1f\n      dup3\n      add\n      and\n      dup3\n      add\n      dup1\n      0x40\n      mstore\n      pop\n      dup2\n      add\n      swap1\n      tag_31\n      swap2\n      swap1\n      tag_32\n      jump\t// in\n    tag_31:\n        /* \"FundMe.sol\":1595:1621  return priceFeed.version() */\n      swap3\n      pop\n      pop\n      pop\n        /* \"FundMe.sol\":1371:1628  function getVersion() public view returns (uint256) {... */\n      swap1\n      jump\t// out\n        /* \"FundMe.sol\":1159:1365  function getConversionRate(uint256 ethAmmount) public view returns (uint256) {... */\n    tag_20:\n        /* \"FundMe.sol\":1227:1234  uint256 */\n      0x00\n        /* \"FundMe.sol\":1246:1259  uint256 price */\n      dup1\n        /* \"FundMe.sol\":1262:1272  getPrice() */\n      tag_34\n        /* \"FundMe.sol\":1262:1270  getPrice */\n      tag_24\n        /* \"FundMe.sol\":1262:1272  getPrice() */\n      jump\t// in\n    tag_34:\n        /* \"FundMe.sol\":1246:1272  uint256 price = getPrice() */\n      swap1\n      pop\n        /* \"FundMe.sol\":1282:1300  uint256 priceInUsd */\n      0x00\n        /* \"FundMe.sol\":1326:1330  1e18 */\n      0x0de0b6b3a7640000\n        /* \"FundMe.sol\":1312:1322  ethAmmount */\n      dup5\n        /* \"FundMe.sol\":1304:1309  price */\n      dup4\n        /* \"FundMe.sol\":1304:1322  price * ethAmmount */\n      tag_35\n      swap2\n      swap1\n      tag_36\n      jump\t// in\n    tag_35:\n        /* \"FundMe.sol\":1303:1330  (price * ethAmmount) / 1e18 */\n      tag_37\n      swap2\n      swap1\n      tag_38\n      jump\t// in\n    tag_37:\n        /* \"FundMe.sol\":1282:1330  uint256 priceInUsd = (price * ethAmmount) / 1e18 */\n      swap1\n      pop\n        /* \"FundMe.sol\":1347:1357  priceInUsd */\n      dup1\n        /* \"FundMe.sol\":1340:1357  return priceInUsd */\n      swap3\n      pop\n      pop\n      pop\n        /* \"FundMe.sol\":1159:1365  function getConversionRate(uint256 ethAmmount) public view returns (uint256) {... */\n      swap2\n      swap1\n      pop\n      jump\t// out\n        /* \"FundMe.sol\":704:1153  function getPrice() public view returns (uint256) {... */\n    tag_24:\n        /* \"FundMe.sol\":745:752  uint256 */\n      0x00\n        /* \"FundMe.sol\":841:865  address priceFeedAddress */\n      dup1\n        /* \"FundMe.sol\":868:910  0x694AA1769357215DE4FAC081bf1f309aDC325306 */\n      0x694aa1769357215de4fac081bf1f309adc325306\n        /* \"FundMe.sol\":841:910  address priceFeedAddress = 0x694AA1769357215DE4FAC081bf1f309aDC325306 */\n      swap1\n      pop\n        /* \"FundMe.sol\":920:951  AggregatorV3Interface priceFeed */\n      0x00\n        /* \"FundMe.sol\":976:992  priceFeedAddress */\n      dup2\n        /* \"FundMe.sol\":920:993  AggregatorV3Interface priceFeed = AggregatorV3Interface(priceFeedAddress) */\n      swap1\n      pop\n        /* \"FundMe.sol\":1006:1018  int256 price */\n      0x00\n        /* \"FundMe.sol\":1025:1034  priceFeed */\n      dup2\n        /* \"FundMe.sol\":1025:1050  priceFeed.latestRoundData */\n      0xffffffffffffffffffffffffffffffffffffffff\n      and\n      0xfeaf968c\n        /* \"FundMe.sol\":1025:1052  priceFeed.latestRoundData() */\n      mload(0x40)\n      dup2\n      0xffffffff\n      and\n      0xe0\n      shl\n      dup2\n      mstore\n      0x04\n      add\n      0xa0\n      mload(0x40)\n      dup1\n      dup4\n      sub\n      dup2\n      dup7\n      gas\n      staticcall\n      iszero\n      dup1\n      iszero\n      tag_41\n      jumpi\n      returndatasize\n      0x00\n      dup1\n      returndatacopy\n      revert(0x00, returndatasize)\n    tag_41:\n      pop\n      pop\n      pop\n      pop\n      mload(0x40)\n      returndatasize\n      not(0x1f)\n      0x1f\n      dup3\n      add\n      and\n      dup3\n      add\n      dup1\n      0x40\n      mstore\n      pop\n      dup2\n      add\n      swap1\n      tag_42\n      swap2\n      swap1\n      tag_43\n      jump\t// in\n    tag_42:\n        /* \"FundMe.sol\":1003:1052  (, int256 price,,,) = priceFeed.latestRoundData() */\n      pop\n      pop\n      pop\n      swap2\n      pop\n      pop\n        /* \"FundMe.sol\":1141:1145  1e10 */\n      0x02540be400\n        /* \"FundMe.sol\":1133:1138  price */\n      dup2\n        /* \"FundMe.sol\":1133:1145  price * 1e10 */\n      tag_44\n      swap2\n      swap1\n      tag_45\n      jump\t// in\n    tag_44:\n        /* \"FundMe.sol\":1118:1146  return uint256(price * 1e10) */\n      swap4\n      pop\n      pop\n      pop\n      pop\n        /* \"FundMe.sol\":704:1153  function getPrice() public view returns (uint256) {... */\n      swap1\n      jump\t// out\n        /* \"FundMe.sol\":320:659  function fund() public payable {... */\n    tag_27:\n        /* \"FundMe.sol\":523:533  minimumUsd */\n      sload(0x00)\n        /* \"FundMe.sol\":491:519  getConversionRate(msg.value) */\n      tag_47\n        /* \"FundMe.sol\":509:518  msg.value */\n      callvalue\n        /* \"FundMe.sol\":491:508  getConversionRate */\n      tag_20\n        /* \"FundMe.sol\":491:519  getConversionRate(msg.value) */\n      jump\t// in\n    tag_47:\n        /* \"FundMe.sol\":491:533  getConversionRate(msg.value) >= minimumUsd */\n      lt\n      iszero\n        /* \"FundMe.sol\":482:560  require( getConversionRate(msg.value) >= minimumUsd, \"Didn't sent enough ETH\") */\n      tag_48\n      jumpi\n      mload(0x40)\n      0x08c379a000000000000000000000000000000000000000000000000000000000\n      dup2\n      mstore\n      0x04\n      add\n      tag_49\n      swap1\n      tag_50\n      jump\t// in\n    tag_49:\n      mload(0x40)\n      dup1\n      swap2\n      sub\n      swap1\n      revert\n    tag_48:\n        /* \"FundMe.sol\":320:659  function fund() public payable {... */\n      jump\t// out\n        /* \"#utility.yul\":7:84   */\n    tag_51:\n        /* \"#utility.yul\":44:51   */\n      0x00\n        /* \"#utility.yul\":73:78   */\n      dup2\n        /* \"#utility.yul\":62:78   */\n      swap1\n      pop\n        /* \"#utility.yul\":7:84   */\n      swap2\n      swap1\n      pop\n      jump\t// out\n        /* \"#utility.yul\":90:208   */\n    tag_52:\n        /* \"#utility.yul\":177:201   */\n      tag_73\n        /* \"#utility.yul\":195:200   */\n      dup2\n        /* \"#utility.yul\":177:201   */\n      tag_51\n      jump\t// in\n    tag_73:\n        /* \"#utility.yul\":172:175   */\n      dup3\n        /* \"#utility.yul\":165:202   */\n      mstore\n        /* \"#utility.yul\":90:208   */\n      pop\n      pop\n      jump\t// out\n        /* \"#utility.yul\":214:436   */\n    tag_11:\n        /* \"#utility.yul\":307:311   */\n      0x00\n        /* \"#utility.yul\":345:347   */\n      0x20\n        /* \"#utility.yul\":334:343   */\n      dup3\n        /* \"#utility.yul\":330:348   */\n      add\n        /* \"#utility.yul\":322:348   */\n      swap1\n      pop\n        /* \"#utility.yul\":358:429   */\n      tag_75\n        /* \"#utility.yul\":426:427   */\n      0x00\n        /* \"#utility.yul\":415:424   */\n      dup4\n        /* \"#utility.yul\":411:428   */\n      add\n        /* \"#utility.yul\":402:408   */\n      dup5\n        /* \"#utility.yul\":358:429   */\n      tag_52\n      jump\t// in\n    tag_75:\n        /* \"#utility.yul\":214:436   */\n      swap3\n      swap2\n      pop\n      pop\n      jump\t// out\n        /* \"#utility.yul\":523:640   */\n    tag_54:\n        /* \"#utility.yul\":632:633   */\n      0x00\n        /* \"#utility.yul\":629:630   */\n      dup1\n        /* \"#utility.yul\":622:634   */\n      revert\n        /* \"#utility.yul\":769:891   */\n    tag_56:\n        /* \"#utility.yul\":842:866   */\n      tag_80\n        /* \"#utility.yul\":860:865   */\n      dup2\n        /* \"#utility.yul\":842:866   */\n      tag_51\n      jump\t// in\n    tag_80:\n        /* \"#utility.yul\":835:840   */\n      dup2\n        /* \"#utility.yul\":832:867   */\n      eq\n        /* \"#utility.yul\":822:885   */\n      tag_81\n      jumpi\n        /* \"#utility.yul\":881:882   */\n      0x00\n        /* \"#utility.yul\":878:879   */\n      dup1\n        /* \"#utility.yul\":871:883   */\n      revert\n        /* \"#utility.yul\":822:885   */\n    tag_81:\n        /* \"#utility.yul\":769:891   */\n      pop\n      jump\t// out\n        /* \"#utility.yul\":897:1036   */\n    tag_57:\n        /* \"#utility.yul\":943:948   */\n      0x00\n        /* \"#utility.yul\":981:987   */\n      dup2\n        /* \"#utility.yul\":968:988   */\n      calldataload\n        /* \"#utility.yul\":959:988   */\n      swap1\n      pop\n        /* \"#utility.yul\":997:1030   */\n      tag_83\n        /* \"#utility.yul\":1024:1029   */\n      dup2\n        /* \"#utility.yul\":997:1030   */\n      tag_56\n      jump\t// in\n    tag_83:\n        /* \"#utility.yul\":897:1036   */\n      swap3\n      swap2\n      pop\n      pop\n      jump\t// out\n        /* \"#utility.yul\":1042:1371   */\n    tag_19:\n        /* \"#utility.yul\":1101:1107   */\n      0x00\n        /* \"#utility.yul\":1150:1152   */\n      0x20\n        /* \"#utility.yul\":1138:1147   */\n      dup3\n        /* \"#utility.yul\":1129:1136   */\n      dup5\n        /* \"#utility.yul\":1125:1148   */\n      sub\n        /* \"#utility.yul\":1121:1153   */\n      slt\n        /* \"#utility.yul\":1118:1237   */\n      iszero\n      tag_85\n      jumpi\n        /* \"#utility.yul\":1156:1235   */\n      tag_86\n      tag_54\n      jump\t// in\n    tag_86:\n        /* \"#utility.yul\":1118:1237   */\n    tag_85:\n        /* \"#utility.yul\":1276:1277   */\n      0x00\n        /* \"#utility.yul\":1301:1354   */\n      tag_87\n        /* \"#utility.yul\":1346:1353   */\n      dup5\n        /* \"#utility.yul\":1337:1343   */\n      dup3\n        /* \"#utility.yul\":1326:1335   */\n      dup6\n        /* \"#utility.yul\":1322:1344   */\n      add\n        /* \"#utility.yul\":1301:1354   */\n      tag_57\n      jump\t// in\n    tag_87:\n        /* \"#utility.yul\":1291:1354   */\n      swap2\n      pop\n        /* \"#utility.yul\":1247:1364   */\n      pop\n        /* \"#utility.yul\":1042:1371   */\n      swap3\n      swap2\n      pop\n      pop\n      jump\t// out\n        /* \"#utility.yul\":1377:1520   */\n    tag_58:\n        /* \"#utility.yul\":1434:1439   */\n      0x00\n        /* \"#utility.yul\":1465:1471   */\n      dup2\n        /* \"#utility.yul\":1459:1472   */\n      mload\n        /* \"#utility.yul\":1450:1472   */\n      swap1\n      pop\n        /* \"#utility.yul\":1481:1514   */\n      tag_89\n        /* \"#utility.yul\":1508:1513   */\n      dup2\n        /* \"#utility.yul\":1481:1514   */\n      tag_56\n      jump\t// in\n    tag_89:\n        /* \"#utility.yul\":1377:1520   */\n      swap3\n      swap2\n      pop\n      pop\n      jump\t// out\n        /* \"#utility.yul\":1526:1877   */\n    tag_32:\n        /* \"#utility.yul\":1596:1602   */\n      0x00\n        /* \"#utility.yul\":1645:1647   */\n      0x20\n        /* \"#utility.yul\":1633:1642   */\n      dup3\n        /* \"#utility.yul\":1624:1631   */\n      dup5\n        /* \"#utility.yul\":1620:1643   */\n      sub\n        /* \"#utility.yul\":1616:1648   */\n      slt\n        /* \"#utility.yul\":1613:1732   */\n      iszero\n      tag_91\n      jumpi\n        /* \"#utility.yul\":1651:1730   */\n      tag_92\n      tag_54\n      jump\t// in\n    tag_92:\n        /* \"#utility.yul\":1613:1732   */\n    tag_91:\n        /* \"#utility.yul\":1771:1772   */\n      0x00\n        /* \"#utility.yul\":1796:1860   */\n      tag_93\n        /* \"#utility.yul\":1852:1859   */\n      dup5\n        /* \"#utility.yul\":1843:1849   */\n      dup3\n        /* \"#utility.yul\":1832:1841   */\n      dup6\n        /* \"#utility.yul\":1828:1850   */\n      add\n        /* \"#utility.yul\":1796:1860   */\n      tag_58\n      jump\t// in\n    tag_93:\n        /* \"#utility.yul\":1786:1860   */\n      swap2\n      pop\n        /* \"#utility.yul\":1742:1870   */\n      pop\n        /* \"#utility.yul\":1526:1877   */\n      swap3\n      swap2\n      pop\n      pop\n      jump\t// out\n        /* \"#utility.yul\":1883:2063   */\n    tag_59:\n        /* \"#utility.yul\":1931:2008   */\n      0x4e487b7100000000000000000000000000000000000000000000000000000000\n        /* \"#utility.yul\":1928:1929   */\n      0x00\n        /* \"#utility.yul\":1921:2009   */\n      mstore\n        /* \"#utility.yul\":2028:2032   */\n      0x11\n        /* \"#utility.yul\":2025:2026   */\n      0x04\n        /* \"#utility.yul\":2018:2033   */\n      mstore\n        /* \"#utility.yul\":2052:2056   */\n      0x24\n        /* \"#utility.yul\":2049:2050   */\n      0x00\n        /* \"#utility.yul\":2042:2057   */\n      revert\n        /* \"#utility.yul\":2069:2479   */\n    tag_36:\n        /* \"#utility.yul\":2109:2116   */\n      0x00\n        /* \"#utility.yul\":2132:2152   */\n      tag_96\n        /* \"#utility.yul\":2150:2151   */\n      dup3\n        /* \"#utility.yul\":2132:2152   */\n      tag_51\n      jump\t// in\n    tag_96:\n        /* \"#utility.yul\":2127:2152   */\n      swap2\n      pop\n        /* \"#utility.yul\":2166:2186   */\n      tag_97\n        /* \"#utility.yul\":2184:2185   */\n      dup4\n        /* \"#utility.yul\":2166:2186   */\n      tag_51\n      jump\t// in\n    tag_97:\n        /* \"#utility.yul\":2161:2186   */\n      swap3\n      pop\n        /* \"#utility.yul\":2221:2222   */\n      dup3\n        /* \"#utility.yul\":2218:2219   */\n      dup3\n        /* \"#utility.yul\":2214:2223   */\n      mul\n        /* \"#utility.yul\":2243:2273   */\n      tag_98\n        /* \"#utility.yul\":2261:2272   */\n      dup2\n        /* \"#utility.yul\":2243:2273   */\n      tag_51\n      jump\t// in\n    tag_98:\n        /* \"#utility.yul\":2232:2273   */\n      swap2\n      pop\n        /* \"#utility.yul\":2422:2423   */\n      dup3\n        /* \"#utility.yul\":2413:2420   */\n      dup3\n        /* \"#utility.yul\":2409:2424   */\n      div\n        /* \"#utility.yul\":2406:2407   */\n      dup5\n        /* \"#utility.yul\":2403:2425   */\n      eq\n        /* \"#utility.yul\":2383:2384   */\n      dup4\n        /* \"#utility.yul\":2376:2385   */\n      iszero\n        /* \"#utility.yul\":2356:2439   */\n      or\n        /* \"#utility.yul\":2333:2472   */\n      tag_99\n      jumpi\n        /* \"#utility.yul\":2452:2470   */\n      tag_100\n      tag_59\n      jump\t// in\n    tag_100:\n        /* \"#utility.yul\":2333:2472   */\n    tag_99:\n        /* \"#utility.yul\":2117:2479   */\n      pop\n        /* \"#utility.yul\":2069:2479   */\n      swap3\n      swap2\n      pop\n      pop\n      jump\t// out\n        /* \"#utility.yul\":2485:2665   */\n    tag_60:\n        /* \"#utility.yul\":2533:2610   */\n      0x4e487b7100000000000000000000000000000000000000000000000000000000\n        /* \"#utility.yul\":2530:2531   */\n      0x00\n        /* \"#utility.yul\":2523:2611   */\n      mstore\n        /* \"#utility.yul\":2630:2634   */\n      0x12\n        /* \"#utility.yul\":2627:2628   */\n      0x04\n        /* \"#utility.yul\":2620:2635   */\n      mstore\n        /* \"#utility.yul\":2654:2658   */\n      0x24\n        /* \"#utility.yul\":2651:2652   */\n      0x00\n        /* \"#utility.yul\":2644:2659   */\n      revert\n        /* \"#utility.yul\":2671:2856   */\n    tag_38:\n        /* \"#utility.yul\":2711:2712   */\n      0x00\n        /* \"#utility.yul\":2728:2748   */\n      tag_103\n        /* \"#utility.yul\":2746:2747   */\n      dup3\n        /* \"#utility.yul\":2728:2748   */\n      tag_51\n      jump\t// in\n    tag_103:\n        /* \"#utility.yul\":2723:2748   */\n      swap2\n      pop\n        /* \"#utility.yul\":2762:2782   */\n      tag_104\n        /* \"#utility.yul\":2780:2781   */\n      dup4\n        /* \"#utility.yul\":2762:2782   */\n      tag_51\n      jump\t// in\n    tag_104:\n        /* \"#utility.yul\":2757:2782   */\n      swap3\n      pop\n        /* \"#utility.yul\":2801:2802   */\n      dup3\n        /* \"#utility.yul\":2791:2826   */\n      tag_105\n      jumpi\n        /* \"#utility.yul\":2806:2824   */\n      tag_106\n      tag_60\n      jump\t// in\n    tag_106:\n        /* \"#utility.yul\":2791:2826   */\n    tag_105:\n        /* \"#utility.yul\":2848:2849   */\n      dup3\n        /* \"#utility.yul\":2845:2846   */\n      dup3\n        /* \"#utility.yul\":2841:2850   */\n      div\n        /* \"#utility.yul\":2836:2850   */\n      swap1\n      pop\n        /* \"#utility.yul\":2671:2856   */\n      swap3\n      swap2\n      pop\n      pop\n      jump\t// out\n        /* \"#utility.yul\":2862:2967   */\n    tag_61:\n        /* \"#utility.yul\":2898:2905   */\n      0x00\n        /* \"#utility.yul\":2938:2960   */\n      0xffffffffffffffffffff\n        /* \"#utility.yul\":2931:2936   */\n      dup3\n        /* \"#utility.yul\":2927:2961   */\n      and\n        /* \"#utility.yul\":2916:2961   */\n      swap1\n      pop\n        /* \"#utility.yul\":2862:2967   */\n      swap2\n      swap1\n      pop\n      jump\t// out\n        /* \"#utility.yul\":2973:3093   */\n    tag_62:\n        /* \"#utility.yul\":3045:3068   */\n      tag_109\n        /* \"#utility.yul\":3062:3067   */\n      dup2\n        /* \"#utility.yul\":3045:3068   */\n      tag_61\n      jump\t// in\n    tag_109:\n        /* \"#utility.yul\":3038:3043   */\n      dup2\n        /* \"#utility.yul\":3035:3069   */\n      eq\n        /* \"#utility.yul\":3025:3087   */\n      tag_110\n      jumpi\n        /* \"#utility.yul\":3083:3084   */\n      0x00\n        /* \"#utility.yul\":3080:3081   */\n      dup1\n        /* \"#utility.yul\":3073:3085   */\n      revert\n        /* \"#utility.yul\":3025:3087   */\n    tag_110:\n        /* \"#utility.yul\":2973:3093   */\n      pop\n      jump\t// out\n        /* \"#utility.yul\":3099:3240   */\n    tag_63:\n        /* \"#utility.yul\":3155:3160   */\n      0x00\n        /* \"#utility.yul\":3186:3192   */\n      dup2\n        /* \"#utility.yul\":3180:3193   */\n      mload\n        /* \"#utility.yul\":3171:3193   */\n      swap1\n      pop\n        /* \"#utility.yul\":3202:3234   */\n      tag_112\n        /* \"#utility.yul\":3228:3233   */\n      dup2\n        /* \"#utility.yul\":3202:3234   */\n      tag_62\n      jump\t// in\n    tag_112:\n        /* \"#utility.yul\":3099:3240   */\n      swap3\n      swap2\n      pop\n      pop\n      jump\t// out\n        /* \"#utility.yul\":3246:3322   */\n    tag_64:\n        /* \"#utility.yul\":3282:3289   */\n      0x00\n        /* \"#utility.yul\":3311:3316   */\n      dup2\n        /* \"#utility.yul\":3300:3316   */\n      swap1\n      pop\n        /* \"#utility.yul\":3246:3322   */\n      swap2\n      swap1\n      pop\n      jump\t// out\n        /* \"#utility.yul\":3328:3448   */\n    tag_65:\n        /* \"#utility.yul\":3400:3423   */\n      tag_115\n        /* \"#utility.yul\":3417:3422   */\n      dup2\n        /* \"#utility.yul\":3400:3423   */\n      tag_64\n      jump\t// in\n    tag_115:\n        /* \"#utility.yul\":3393:3398   */\n      dup2\n        /* \"#utility.yul\":3390:3424   */\n      eq\n        /* \"#utility.yul\":3380:3442   */\n      tag_116\n      jumpi\n        /* \"#utility.yul\":3438:3439   */\n      0x00\n        /* \"#utility.yul\":3435:3436   */\n      dup1\n        /* \"#utility.yul\":3428:3440   */\n      revert\n        /* \"#utility.yul\":3380:3442   */\n    tag_116:\n        /* \"#utility.yul\":3328:3448   */\n      pop\n      jump\t// out\n        /* \"#utility.yul\":3454:3595   */\n    tag_66:\n        /* \"#utility.yul\":3510:3515   */\n      0x00\n        /* \"#utility.yul\":3541:3547   */\n      dup2\n        /* \"#utility.yul\":3535:3548   */\n      mload\n        /* \"#utility.yul\":3526:3548   */\n      swap1\n      pop\n        /* \"#utility.yul\":3557:3589   */\n      tag_118\n        /* \"#utility.yul\":3583:3588   */\n      dup2\n        /* \"#utility.yul\":3557:3589   */\n      tag_65\n      jump\t// in\n    tag_118:\n        /* \"#utility.yul\":3454:3595   */\n      swap3\n      swap2\n      pop\n      pop\n      jump\t// out\n        /* \"#utility.yul\":3601:4572   */\n    tag_43:\n        /* \"#utility.yul\":3704:3710   */\n      0x00\n        /* \"#utility.yul\":3712:3718   */\n      dup1\n        /* \"#utility.yul\":3720:3726   */\n      0x00\n        /* \"#utility.yul\":3728:3734   */\n      dup1\n        /* \"#utility.yul\":3736:3742   */\n      0x00\n        /* \"#utility.yul\":3785:3788   */\n      0xa0\n        /* \"#utility.yul\":3773:3782   */\n      dup7\n        /* \"#utility.yul\":3764:3771   */\n      dup9\n        /* \"#utility.yul\":3760:3783   */\n      sub\n        /* \"#utility.yul\":3756:3789   */\n      slt\n        /* \"#utility.yul\":3753:3873   */\n      iszero\n      tag_120\n      jumpi\n        /* \"#utility.yul\":3792:3871   */\n      tag_121\n      tag_54\n      jump\t// in\n    tag_121:\n        /* \"#utility.yul\":3753:3873   */\n    tag_120:\n        /* \"#utility.yul\":3912:3913   */\n      0x00\n        /* \"#utility.yul\":3937:4000   */\n      tag_122\n        /* \"#utility.yul\":3992:3999   */\n      dup9\n        /* \"#utility.yul\":3983:3989   */\n      dup3\n        /* \"#utility.yul\":3972:3981   */\n      dup10\n        /* \"#utility.yul\":3968:3990   */\n      add\n        /* \"#utility.yul\":3937:4000   */\n      tag_63\n      jump\t// in\n    tag_122:\n        /* \"#utility.yul\":3927:4000   */\n      swap6\n      pop\n        /* \"#utility.yul\":3883:4010   */\n      pop\n        /* \"#utility.yul\":4049:4051   */\n      0x20\n        /* \"#utility.yul\":4075:4138   */\n      tag_123\n        /* \"#utility.yul\":4130:4137   */\n      dup9\n        /* \"#utility.yul\":4121:4127   */\n      dup3\n        /* \"#utility.yul\":4110:4119   */\n      dup10\n        /* \"#utility.yul\":4106:4128   */\n      add\n        /* \"#utility.yul\":4075:4138   */\n      tag_66\n      jump\t// in\n    tag_123:\n        /* \"#utility.yul\":4065:4138   */\n      swap5\n      pop\n        /* \"#utility.yul\":4020:4148   */\n      pop\n        /* \"#utility.yul\":4187:4189   */\n      0x40\n        /* \"#utility.yul\":4213:4277   */\n      tag_124\n        /* \"#utility.yul\":4269:4276   */\n      dup9\n        /* \"#utility.yul\":4260:4266   */\n      dup3\n        /* \"#utility.yul\":4249:4258   */\n      dup10\n        /* \"#utility.yul\":4245:4267   */\n      add\n        /* \"#utility.yul\":4213:4277   */\n      tag_58\n      jump\t// in\n    tag_124:\n        /* \"#utility.yul\":4203:4277   */\n      swap4\n      pop\n        /* \"#utility.yul\":4158:4287   */\n      pop\n        /* \"#utility.yul\":4326:4328   */\n      0x60\n        /* \"#utility.yul\":4352:4416   */\n      tag_125\n        /* \"#utility.yul\":4408:4415   */\n      dup9\n        /* \"#utility.yul\":4399:4405   */\n      dup3\n        /* \"#utility.yul\":4388:4397   */\n      dup10\n        /* \"#utility.yul\":4384:4406   */\n      add\n        /* \"#utility.yul\":4352:4416   */\n      tag_58\n      jump\t// in\n    tag_125:\n        /* \"#utility.yul\":4342:4416   */\n      swap3\n      pop\n        /* \"#utility.yul\":4297:4426   */\n      pop\n        /* \"#utility.yul\":4465:4468   */\n      0x80\n        /* \"#utility.yul\":4492:4555   */\n      tag_126\n        /* \"#utility.yul\":4547:4554   */\n      dup9\n        /* \"#utility.yul\":4538:4544   */\n      dup3\n        /* \"#utility.yul\":4527:4536   */\n      dup10\n        /* \"#utility.yul\":4523:4545   */\n      add\n        /* \"#utility.yul\":4492:4555   */\n      tag_63\n      jump\t// in\n    tag_126:\n        /* \"#utility.yul\":4482:4555   */\n      swap2\n      pop\n        /* \"#utility.yul\":4436:4565   */\n      pop\n        /* \"#utility.yul\":3601:4572   */\n      swap3\n      swap6\n      pop\n      swap3\n      swap6\n      swap1\n      swap4\n      pop\n      jump\t// out\n        /* \"#utility.yul\":4578:5134   */\n    tag_45:\n        /* \"#utility.yul\":4617:4624   */\n      0x00\n        /* \"#utility.yul\":4640:4659   */\n      tag_128\n        /* \"#utility.yul\":4657:4658   */\n      dup3\n        /* \"#utility.yul\":4640:4659   */\n      tag_64\n      jump\t// in\n    tag_128:\n        /* \"#utility.yul\":4635:4659   */\n      swap2\n      pop\n        /* \"#utility.yul\":4673:4692   */\n      tag_129\n        /* \"#utility.yul\":4690:4691   */\n      dup4\n        /* \"#utility.yul\":4673:4692   */\n      tag_64\n      jump\t// in\n    tag_129:\n        /* \"#utility.yul\":4668:4692   */\n      swap3\n      pop\n        /* \"#utility.yul\":4727:4728   */\n      dup3\n        /* \"#utility.yul\":4724:4725   */\n      dup3\n        /* \"#utility.yul\":4720:4729   */\n      mul\n        /* \"#utility.yul\":4749:4778   */\n      tag_130\n        /* \"#utility.yul\":4766:4777   */\n      dup2\n        /* \"#utility.yul\":4749:4778   */\n      tag_64\n      jump\t// in\n    tag_130:\n        /* \"#utility.yul\":4738:4778   */\n      swap2\n      pop\n        /* \"#utility.yul\":4836:4902   */\n      0x8000000000000000000000000000000000000000000000000000000000000000\n        /* \"#utility.yul\":4833:4834   */\n      dup5\n        /* \"#utility.yul\":4830:4903   */\n      eq\n        /* \"#utility.yul\":4826:4827   */\n      0x00\n        /* \"#utility.yul\":4823:4824   */\n      dup5\n        /* \"#utility.yul\":4819:4828   */\n      slt\n        /* \"#utility.yul\":4815:4904   */\n      and\n        /* \"#utility.yul\":4812:4927   */\n      iszero\n      tag_131\n      jumpi\n        /* \"#utility.yul\":4907:4925   */\n      tag_132\n      tag_59\n      jump\t// in\n    tag_132:\n        /* \"#utility.yul\":4812:4927   */\n    tag_131:\n        /* \"#utility.yul\":5077:5078   */\n      dup3\n        /* \"#utility.yul\":5068:5075   */\n      dup3\n        /* \"#utility.yul\":5063:5079   */\n      sdiv\n        /* \"#utility.yul\":5060:5061   */\n      dup5\n        /* \"#utility.yul\":5057:5080   */\n      eq\n        /* \"#utility.yul\":5037:5038   */\n      dup4\n        /* \"#utility.yul\":5030:5039   */\n      iszero\n        /* \"#utility.yul\":5010:5094   */\n      or\n        /* \"#utility.yul\":4987:5127   */\n      tag_133\n      jumpi\n        /* \"#utility.yul\":5107:5125   */\n      tag_134\n      tag_59\n      jump\t// in\n    tag_134:\n        /* \"#utility.yul\":4987:5127   */\n    tag_133:\n        /* \"#utility.yul\":4625:5134   */\n      pop\n        /* \"#utility.yul\":4578:5134   */\n      swap3\n      swap2\n      pop\n      pop\n      jump\t// out\n        /* \"#utility.yul\":5140:5309   */\n    tag_67:\n        /* \"#utility.yul\":5224:5235   */\n      0x00\n        /* \"#utility.yul\":5258:5264   */\n      dup3\n        /* \"#utility.yul\":5253:5256   */\n      dup3\n        /* \"#utility.yul\":5246:5265   */\n      mstore\n        /* \"#utility.yul\":5298:5302   */\n      0x20\n        /* \"#utility.yul\":5293:5296   */\n      dup3\n        /* \"#utility.yul\":5289:5303   */\n      add\n        /* \"#utility.yul\":5274:5303   */\n      swap1\n      pop\n        /* \"#utility.yul\":5140:5309   */\n      swap3\n      swap2\n      pop\n      pop\n      jump\t// out\n        /* \"#utility.yul\":5315:5487   */\n    tag_68:\n        /* \"#utility.yul\":5455:5479   */\n      0x4469646e27742073656e7420656e6f7567682045544800000000000000000000\n        /* \"#utility.yul\":5451:5452   */\n      0x00\n        /* \"#utility.yul\":5443:5449   */\n      dup3\n        /* \"#utility.yul\":5439:5453   */\n      add\n        /* \"#utility.yul\":5432:5480   */\n      mstore\n        /* \"#utility.yul\":5315:5487   */\n      pop\n      jump\t// out\n        /* \"#utility.yul\":5493:5859   */\n    tag_69:\n        /* \"#utility.yul\":5635:5638   */\n      0x00\n        /* \"#utility.yul\":5656:5723   */\n      tag_138\n        /* \"#utility.yul\":5720:5722   */\n      0x16\n        /* \"#utility.yul\":5715:5718   */\n      dup4\n        /* \"#utility.yul\":5656:5723   */\n      tag_67\n      jump\t// in\n    tag_138:\n        /* \"#utility.yul\":5649:5723   */\n      swap2\n      pop\n        /* \"#utility.yul\":5732:5825   */\n      tag_139\n        /* \"#utility.yul\":5821:5824   */\n      dup3\n        /* \"#utility.yul\":5732:5825   */\n      tag_68\n      jump\t// in\n    tag_139:\n        /* \"#utility.yul\":5850:5852   */\n      0x20\n        /* \"#utility.yul\":5845:5848   */\n      dup3\n        /* \"#utility.yul\":5841:5853   */\n      add\n        /* \"#utility.yul\":5834:5853   */\n      swap1\n      pop\n        /* \"#utility.yul\":5493:5859   */\n      swap2\n      swap1\n      pop\n      jump\t// out\n        /* \"#utility.yul\":5865:6284   */\n    tag_50:\n        /* \"#utility.yul\":6031:6035   */\n      0x00\n        /* \"#utility.yul\":6069:6071   */\n      0x20\n        /* \"#utility.yul\":6058:6067   */\n      dup3\n        /* \"#utility.yul\":6054:6072   */\n      add\n        /* \"#utility.yul\":6046:6072   */\n      swap1\n      pop\n        /* \"#utility.yul\":6118:6127   */\n      dup2\n        /* \"#utility.yul\":6112:6116   */\n      dup2\n        /* \"#utility.yul\":6108:6128   */\n      sub\n        /* \"#utility.yul\":6104:6105   */\n      0x00\n        /* \"#utility.yul\":6093:6102   */\n      dup4\n        /* \"#utility.yul\":6089:6106   */\n      add\n        /* \"#utility.yul\":6082:6129   */\n      mstore\n        /* \"#utility.yul\":6146:6277   */\n      tag_141\n        /* \"#utility.yul\":6272:6276   */\n      dup2\n        /* \"#utility.yul\":6146:6277   */\n      tag_69\n      jump\t// in\n    tag_141:\n        /* \"#utility.yul\":6138:6277   */\n      swap1\n      pop\n        /* \"#utility.yul\":5865:6284   */\n      swap2\n      swap1\n      pop\n      jump\t// out\n\n    auxdata: 0xa2646970667358221220e74f1ffa053b870b7fc8b1c98b1c6a8c92efa4280c9922ad25f3d24ddd58b4ee64736f6c63430008120033\n}\n",
				"bytecode": {
					"linkReferences": {},
					"object": "6080604052674563918244f4000060005534801561001c57600080fd5b506106ad8061002c6000396000f3fe60806040526004361061004a5760003560e01c8063098de8201461004f5780630d8e6e2c1461007a5780636e5b6b28146100a557806398d5fdca146100e2578063b60d42881461010d575b600080fd5b34801561005b57600080fd5b50610064610117565b6040516100719190610303565b60405180910390f35b34801561008657600080fd5b5061008f61011d565b60405161009c9190610303565b60405180910390f35b3480156100b157600080fd5b506100cc60048036038101906100c7919061034f565b6101b2565b6040516100d99190610303565b60405180910390f35b3480156100ee57600080fd5b506100f76101ec565b6040516101049190610303565b60405180910390f35b61011561029b565b005b60005481565b60008073694aa1769357215de4fac081bf1f309adc325306905060008190508073ffffffffffffffffffffffffffffffffffffffff166354fd4d506040518163ffffffff1660e01b8152600401602060405180830381865afa158015610187573d6000803e3d6000fd5b505050506040513d601f19601f820116820180604052508101906101ab9190610391565b9250505090565b6000806101bd6101ec565b90506000670de0b6b3a764000084836101d691906103ed565b6101e0919061045e565b90508092505050919050565b60008073694aa1769357215de4fac081bf1f309adc3253069050600081905060008173ffffffffffffffffffffffffffffffffffffffff1663feaf968c6040518163ffffffff1660e01b815260040160a060405180830381865afa158015610258573d6000803e3d6000fd5b505050506040513d601f19601f8201168201806040525081019061027c9190610507565b5050509150506402540be400816102939190610582565b935050505090565b6000546102a7346101b2565b10156102e8576040517f08c379a00000000000000000000000000000000000000000000000000000000081526004016102df90610657565b60405180910390fd5b565b6000819050919050565b6102fd816102ea565b82525050565b600060208201905061031860008301846102f4565b92915050565b600080fd5b61032c816102ea565b811461033757600080fd5b50565b60008135905061034981610323565b92915050565b6000602082840312156103655761036461031e565b5b60006103738482850161033a565b91505092915050565b60008151905061038b81610323565b92915050565b6000602082840312156103a7576103a661031e565b5b60006103b58482850161037c565b91505092915050565b7f4e487b7100000000000000000000000000000000000000000000000000000000600052601160045260246000fd5b60006103f8826102ea565b9150610403836102ea565b9250828202610411816102ea565b91508282048414831517610428576104276103be565b5b5092915050565b7f4e487b7100000000000000000000000000000000000000000000000000000000600052601260045260246000fd5b6000610469826102ea565b9150610474836102ea565b9250826104845761048361042f565b5b828204905092915050565b600069ffffffffffffffffffff82169050919050565b6104ae8161048f565b81146104b957600080fd5b50565b6000815190506104cb816104a5565b92915050565b6000819050919050565b6104e4816104d1565b81146104ef57600080fd5b50565b600081519050610501816104db565b92915050565b600080600080600060a086880312156105235761052261031e565b5b6000610531888289016104bc565b9550506020610542888289016104f2565b94505060406105538882890161037c565b93505060606105648882890161037c565b9250506080610575888289016104bc565b9150509295509295909350565b600061058d826104d1565b9150610598836104d1565b92508282026105a6816104d1565b91507f800000000000000000000000000000000000000000000000000000000000000084146000841216156105de576105dd6103be565b5b82820584148315176105f3576105f26103be565b5b5092915050565b600082825260208201905092915050565b7f4469646e27742073656e7420656e6f7567682045544800000000000000000000600082015250565b60006106416016836105fa565b915061064c8261060b565b602082019050919050565b6000602082019050818103600083015261067081610634565b905091905056fea2646970667358221220e74f1ffa053b870b7fc8b1c98b1c6a8c92efa4280c9922ad25f3d24ddd58b4ee64736f6c63430008120033",
					"opcodes": "PUSH1 0x80 PUSH1 0x40 MSTORE PUSH8 0x4563918244F40000 PUSH1 0x0 SSTORE CALLVALUE DUP1 ISZERO PUSH2 0x1C JUMPI PUSH1 0x0 DUP1 REVERT JUMPDEST POP PUSH2 0x6AD DUP1 PUSH2 0x2C PUSH1 0x0 CODECOPY PUSH1 0x0 RETURN INVALID PUSH1 0x80 PUSH1 0x40 MSTORE PUSH1 0x4 CALLDATASIZE LT PUSH2 0x4A JUMPI PUSH1 0x0 CALLDATALOAD PUSH1 0xE0 SHR DUP1 PUSH4 0x98DE820 EQ PUSH2 0x4F JUMPI DUP1 PUSH4 0xD8E6E2C EQ PUSH2 0x7A JUMPI DUP1 PUSH4 0x6E5B6B28 EQ PUSH2 0xA5 JUMPI DUP1 PUSH4 0x98D5FDCA EQ PUSH2 0xE2 JUMPI DUP1 PUSH4 0xB60D4288 EQ PUSH2 0x10D JUMPI JUMPDEST PUSH1 0x0 DUP1 REVERT JUMPDEST CALLVALUE DUP1 ISZERO PUSH2 0x5B JUMPI PUSH1 0x0 DUP1 REVERT JUMPDEST POP PUSH2 0x64 PUSH2 0x117 JUMP JUMPDEST PUSH1 0x40 MLOAD PUSH2 0x71 SWAP2 SWAP1 PUSH2 0x303 JUMP JUMPDEST PUSH1 0x40 MLOAD DUP1 SWAP2 SUB SWAP1 RETURN JUMPDEST CALLVALUE DUP1 ISZERO PUSH2 0x86 JUMPI PUSH1 0x0 DUP1 REVERT JUMPDEST POP PUSH2 0x8F PUSH2 0x11D JUMP JUMPDEST PUSH1 0x40 MLOAD PUSH2 0x9C SWAP2 SWAP1 PUSH2 0x303 JUMP JUMPDEST PUSH1 0x40 MLOAD DUP1 SWAP2 SUB SWAP1 RETURN JUMPDEST CALLVALUE DUP1 ISZERO PUSH2 0xB1 JUMPI PUSH1 0x0 DUP1 REVERT JUMPDEST POP PUSH2 0xCC PUSH1 0x4 DUP1 CALLDATASIZE SUB DUP2 ADD SWAP1 PUSH2 0xC7 SWAP2 SWAP1 PUSH2 0x34F JUMP JUMPDEST PUSH2 0x1B2 JUMP JUMPDEST PUSH1 0x40 MLOAD PUSH2 0xD9 SWAP2 SWAP1 PUSH2 0x303 JUMP JUMPDEST PUSH1 0x40 MLOAD DUP1 SWAP2 SUB SWAP1 RETURN JUMPDEST CALLVALUE DUP1 ISZERO PUSH2 0xEE JUMPI PUSH1 0x0 DUP1 REVERT JUMPDEST POP PUSH2 0xF7 PUSH2 0x1EC JUMP JUMPDEST PUSH1 0x40 MLOAD PUSH2 0x104 SWAP2 SWAP1 PUSH2 0x303 JUMP JUMPDEST PUSH1 0x40 MLOAD DUP1 SWAP2 SUB SWAP1 RETURN JUMPDEST PUSH2 0x115 PUSH2 0x29B JUMP JUMPDEST STOP JUMPDEST PUSH1 0x0 SLOAD DUP2 JUMP JUMPDEST PUSH1 0x0 DUP1 PUSH20 0x694AA1769357215DE4FAC081BF1F309ADC325306 SWAP1 POP PUSH1 0x0 DUP2 SWAP1 POP DUP1 PUSH20 0xFFFFFFFFFFFFFFFFFFFFFFFFFFFFFFFFFFFFFFFF AND PUSH4 0x54FD4D50 PUSH1 0x40 MLOAD DUP2 PUSH4 0xFFFFFFFF AND PUSH1 0xE0 SHL DUP2 MSTORE PUSH1 0x4 ADD PUSH1 0x20 PUSH1 0x40 MLOAD DUP1 DUP4 SUB DUP2 DUP7 GAS STATICCALL ISZERO DUP1 ISZERO PUSH2 0x187 JUMPI RETURNDATASIZE PUSH1 0x0 DUP1 RETURNDATACOPY RETURNDATASIZE PUSH1 0x0 REVERT JUMPDEST POP POP POP POP PUSH1 0x40 MLOAD RETURNDATASIZE PUSH1 0x1F NOT PUSH1 0x1F DUP3 ADD AND DUP3 ADD DUP1 PUSH1 0x40 MSTORE POP DUP2 ADD SWAP1 PUSH2 0x1AB SWAP2 SWAP1 PUSH2 0x391 JUMP JUMPDEST SWAP3 POP POP POP SWAP1 JUMP JUMPDEST PUSH1 0x0 DUP1 PUSH2 0x1BD PUSH2 0x1EC JUMP JUMPDEST SWAP1 POP PUSH1 0x0 PUSH8 0xDE0B6B3A7640000 DUP5 DUP4 PUSH2 0x1D6 SWAP2 SWAP1 PUSH2 0x3ED JUMP JUMPDEST PUSH2 0x1E0 SWAP2 SWAP1 PUSH2 0x45E JUMP JUMPDEST SWAP1 POP DUP1 SWAP3 POP POP POP SWAP2 SWAP1 POP JUMP JUMPDEST PUSH1 0x0 DUP1 PUSH20 0x694AA1769357215DE4FAC081BF1F309ADC325306 SWAP1 POP PUSH1 0x0 DUP2 SWAP1 POP PUSH1 0x0 DUP2 PUSH20 0xFFFFFFFFFFFFFFFFFFFFFFFFFFFFFFFFFFFFFFFF AND PUSH4 0xFEAF968C PUSH1 0x40 MLOAD DUP2 PUSH4 0xFFFFFFFF AND PUSH1 0xE0 SHL DUP2 MSTORE PUSH1 0x4 ADD PUSH1 0xA0 PUSH1 0x40 MLOAD DUP1 DUP4 SUB DUP2 DUP7 GAS STATICCALL ISZERO DUP1 ISZERO PUSH2 0x258 JUMPI RETURNDATASIZE PUSH1 0x0 DUP1 RETURNDATACOPY RETURNDATASIZE PUSH1 0x0 REVERT JUMPDEST POP POP POP POP PUSH1 0x40 MLOAD RETURNDATASIZE PUSH1 0x1F NOT PUSH1 0x1F DUP3 ADD AND DUP3 ADD DUP1 PUSH1 0x40 MSTORE POP DUP2 ADD SWAP1 PUSH2 0x27C SWAP2 SWAP1 PUSH2 0x507 JUMP JUMPDEST POP POP POP SWAP2 POP POP PUSH5 0x2540BE400 DUP2 PUSH2 0x293 SWAP2 SWAP1 PUSH2 0x582 JUMP JUMPDEST SWAP4 POP POP POP POP SWAP1 JUMP JUMPDEST PUSH1 0x0 SLOAD PUSH2 0x2A7 CALLVALUE PUSH2 0x1B2 JUMP JUMPDEST LT ISZERO PUSH2 0x2E8 JUMPI PUSH1 0x40 MLOAD PUSH32 0x8C379A000000000000000000000000000000000000000000000000000000000 DUP2 MSTORE PUSH1 0x4 ADD PUSH2 0x2DF SWAP1 PUSH2 0x657 JUMP JUMPDEST PUSH1 0x40 MLOAD DUP1 SWAP2 SUB SWAP1 REVERT JUMPDEST JUMP JUMPDEST PUSH1 0x0 DUP2 SWAP1 POP SWAP2 SWAP1 POP JUMP JUMPDEST PUSH2 0x2FD DUP2 PUSH2 0x2EA JUMP JUMPDEST DUP3 MSTORE POP POP JUMP JUMPDEST PUSH1 0x0 PUSH1 0x20 DUP3 ADD SWAP1 POP PUSH2 0x318 PUSH1 0x0 DUP4 ADD DUP5 PUSH2 0x2F4 JUMP JUMPDEST SWAP3 SWAP2 POP POP JUMP JUMPDEST PUSH1 0x0 DUP1 REVERT JUMPDEST PUSH2 0x32C DUP2 PUSH2 0x2EA JUMP JUMPDEST DUP2 EQ PUSH2 0x337 JUMPI PUSH1 0x0 DUP1 REVERT JUMPDEST POP JUMP JUMPDEST PUSH1 0x0 DUP2 CALLDATALOAD SWAP1 POP PUSH2 0x349 DUP2 PUSH2 0x323 JUMP JUMPDEST SWAP3 SWAP2 POP POP JUMP JUMPDEST PUSH1 0x0 PUSH1 0x20 DUP3 DUP5 SUB SLT ISZERO PUSH2 0x365 JUMPI PUSH2 0x364 PUSH2 0x31E JUMP JUMPDEST JUMPDEST PUSH1 0x0 PUSH2 0x373 DUP5 DUP3 DUP6 ADD PUSH2 0x33A JUMP JUMPDEST SWAP2 POP POP SWAP3 SWAP2 POP POP JUMP JUMPDEST PUSH1 0x0 DUP2 MLOAD SWAP1 POP PUSH2 0x38B DUP2 PUSH2 0x323 JUMP JUMPDEST SWAP3 SWAP2 POP POP JUMP JUMPDEST PUSH1 0x0 PUSH1 0x20 DUP3 DUP5 SUB SLT ISZERO PUSH2 0x3A7 JUMPI PUSH2 0x3A6 PUSH2 0x31E JUMP JUMPDEST JUMPDEST PUSH1 0x0 PUSH2 0x3B5 DUP5 DUP3 DUP6 ADD PUSH2 0x37C JUMP JUMPDEST SWAP2 POP POP SWAP3 SWAP2 POP POP JUMP JUMPDEST PUSH32 0x4E487B7100000000000000000000000000000000000000000000000000000000 PUSH1 0x0 MSTORE PUSH1 0x11 PUSH1 0x4 MSTORE PUSH1 0x24 PUSH1 0x0 REVERT JUMPDEST PUSH1 0x0 PUSH2 0x3F8 DUP3 PUSH2 0x2EA JUMP JUMPDEST SWAP2 POP PUSH2 0x403 DUP4 PUSH2 0x2EA JUMP JUMPDEST SWAP3 POP DUP3 DUP3 MUL PUSH2 0x411 DUP2 PUSH2 0x2EA JUMP JUMPDEST SWAP2 POP DUP3 DUP3 DIV DUP5 EQ DUP4 ISZERO OR PUSH2 0x428 JUMPI PUSH2 0x427 PUSH2 0x3BE JUMP JUMPDEST JUMPDEST POP SWAP3 SWAP2 POP POP JUMP JUMPDEST PUSH32 0x4E487B7100000000000000000000000000000000000000000000000000000000 PUSH1 0x0 MSTORE PUSH1 0x12 PUSH1 0x4 MSTORE PUSH1 0x24 PUSH1 0x0 REVERT JUMPDEST PUSH1 0x0 PUSH2 0x469 DUP3 PUSH2 0x2EA JUMP JUMPDEST SWAP2 POP PUSH2 0x474 DUP4 PUSH2 0x2EA JUMP JUMPDEST SWAP3 POP DUP3 PUSH2 0x484 JUMPI PUSH2 0x483 PUSH2 0x42F JUMP JUMPDEST JUMPDEST DUP3 DUP3 DIV SWAP1 POP SWAP3 SWAP2 POP POP JUMP JUMPDEST PUSH1 0x0 PUSH10 0xFFFFFFFFFFFFFFFFFFFF DUP3 AND SWAP1 POP SWAP2 SWAP1 POP JUMP JUMPDEST PUSH2 0x4AE DUP2 PUSH2 0x48F JUMP JUMPDEST DUP2 EQ PUSH2 0x4B9 JUMPI PUSH1 0x0 DUP1 REVERT JUMPDEST POP JUMP JUMPDEST PUSH1 0x0 DUP2 MLOAD SWAP1 POP PUSH2 0x4CB DUP2 PUSH2 0x4A5 JUMP JUMPDEST SWAP3 SWAP2 POP POP JUMP JUMPDEST PUSH1 0x0 DUP2 SWAP1 POP SWAP2 SWAP1 POP JUMP JUMPDEST PUSH2 0x4E4 DUP2 PUSH2 0x4D1 JUMP JUMPDEST DUP2 EQ PUSH2 0x4EF JUMPI PUSH1 0x0 DUP1 REVERT JUMPDEST POP JUMP JUMPDEST PUSH1 0x0 DUP2 MLOAD SWAP1 POP PUSH2 0x501 DUP2 PUSH2 0x4DB JUMP JUMPDEST SWAP3 SWAP2 POP POP JUMP JUMPDEST PUSH1 0x0 DUP1 PUSH1 0x0 DUP1 PUSH1 0x0 PUSH1 0xA0 DUP7 DUP9 SUB SLT ISZERO PUSH2 0x523 JUMPI PUSH2 0x522 PUSH2 0x31E JUMP JUMPDEST JUMPDEST PUSH1 0x0 PUSH2 0x531 DUP9 DUP3 DUP10 ADD PUSH2 0x4BC JUMP JUMPDEST SWAP6 POP POP PUSH1 0x20 PUSH2 0x542 DUP9 DUP3 DUP10 ADD PUSH2 0x4F2 JUMP JUMPDEST SWAP5 POP POP PUSH1 0x40 PUSH2 0x553 DUP9 DUP3 DUP10 ADD PUSH2 0x37C JUMP JUMPDEST SWAP4 POP POP PUSH1 0x60 PUSH2 0x564 DUP9 DUP3 DUP10 ADD PUSH2 0x37C JUMP JUMPDEST SWAP3 POP POP PUSH1 0x80 PUSH2 0x575 DUP9 DUP3 DUP10 ADD PUSH2 0x4BC JUMP JUMPDEST SWAP2 POP POP SWAP3 SWAP6 POP SWAP3 SWAP6 SWAP1 SWAP4 POP JUMP JUMPDEST PUSH1 0x0 PUSH2 0x58D DUP3 PUSH2 0x4D1 JUMP JUMPDEST SWAP2 POP PUSH2 0x598 DUP4 PUSH2 0x4D1 JUMP JUMPDEST SWAP3 POP DUP3 DUP3 MUL PUSH2 0x5A6 DUP2 PUSH2 0x4D1 JUMP JUMPDEST SWAP2 POP PUSH32 0x8000000000000000000000000000000000000000000000000000000000000000 DUP5 EQ PUSH1 0x0 DUP5 SLT AND ISZERO PUSH2 0x5DE JUMPI PUSH2 0x5DD PUSH2 0x3BE JUMP JUMPDEST JUMPDEST DUP3 DUP3 SDIV DUP5 EQ DUP4 ISZERO OR PUSH2 0x5F3 JUMPI PUSH2 0x5F2 PUSH2 0x3BE JUMP JUMPDEST JUMPDEST POP SWAP3 SWAP2 POP POP JUMP JUMPDEST PUSH1 0x0 DUP3 DUP3 MSTORE PUSH1 0x20 DUP3 ADD SWAP1 POP SWAP3 SWAP2 POP POP JUMP JUMPDEST PUSH32 0x4469646E27742073656E7420656E6F7567682045544800000000000000000000 PUSH1 0x0 DUP3 ADD MSTORE POP JUMP JUMPDEST PUSH1 0x0 PUSH2 0x641 PUSH1 0x16 DUP4 PUSH2 0x5FA JUMP JUMPDEST SWAP2 POP PUSH2 0x64C DUP3 PUSH2 0x60B JUMP JUMPDEST PUSH1 0x20 DUP3 ADD SWAP1 POP SWAP2 SWAP1 POP JUMP JUMPDEST PUSH1 0x0 PUSH1 0x20 DUP3 ADD SWAP1 POP DUP2 DUP2 SUB PUSH1 0x0 DUP4 ADD MSTORE PUSH2 0x670 DUP2 PUSH2 0x634 JUMP JUMPDEST SWAP1 POP SWAP2 SWAP1 POP JUMP INVALID LOG2 PUSH5 0x6970667358 0x22 SLT KECCAK256 0xE7 0x4F 0x1F STATICCALL SDIV EXTCODESIZE DUP8 SIGNEXTEND PUSH32 0xC8B1C98B1C6A8C92EFA4280C9922AD25F3D24DDD58B4EE64736F6C6343000812 STOP CALLER "
				},
				"gasEstimates": {
					"creation": {
						"codeDepositCost": "341800",
						"executionCost": "22486",
						"totalCost": "364286"
					},
					"external": {
						"fund()": "infinite",
						"getConversionRate(uint256)": "infinite",
						"getPrice()": "infinite",
						"getVersion()": "infinite",
						"minimumUsd()": "2407"
					}
				},
				"methodIdentifiers": {
					"fund()": "b60d4288",
					"getConversionRate(uint256)": "6e5b6b28",
					"getPrice()": "98d5fdca",
					"getVersion()": "0d8e6e2c",
					"minimumUsd()": "098de820"
				}
			},
			"storageLayout": {
				"storage": [
					{
						"astId": 54,
						"contract": "FundMe.sol:FundMe",
						"label": "minimumUsd",
						"offset": 0,
						"slot": "0",
						"type": "t_uint256"
					}
				],
				"types": {
					"t_uint256": {
						"encoding": "inplace",
						"label": "uint256",
						"numberOfBytes": "32"
					}
				}
			},
			"userdoc": {
				"kind": "user",
				"methods": {},
				"version": 1
			}
		}
	}
}